{
  "contractName": "Land",
  "abi": [
    {
      "inputs": [
        {
          "internalType": "string",
          "name": "_name",
          "type": "string"
        },
        {
          "internalType": "string",
          "name": "_symbol",
          "type": "string"
        },
        {
          "internalType": "uint256",
          "name": "_cost",
          "type": "uint256"
        }
      ],
      "stateMutability": "nonpayable",
      "type": "constructor"
    },
    {
      "anonymous": false,
      "inputs": [
        {
          "indexed": true,
          "internalType": "address",
          "name": "owner",
          "type": "address"
        },
        {
          "indexed": true,
          "internalType": "address",
          "name": "approved",
          "type": "address"
        },
        {
          "indexed": true,
          "internalType": "uint256",
          "name": "tokenId",
          "type": "uint256"
        }
      ],
      "name": "Approval",
      "type": "event"
    },
    {
      "anonymous": false,
      "inputs": [
        {
          "indexed": true,
          "internalType": "address",
          "name": "owner",
          "type": "address"
        },
        {
          "indexed": true,
          "internalType": "address",
          "name": "operator",
          "type": "address"
        },
        {
          "indexed": false,
          "internalType": "bool",
          "name": "approved",
          "type": "bool"
        }
      ],
      "name": "ApprovalForAll",
      "type": "event"
    },
    {
      "anonymous": false,
      "inputs": [
        {
          "indexed": true,
          "internalType": "address",
          "name": "from",
          "type": "address"
        },
        {
          "indexed": true,
          "internalType": "address",
          "name": "to",
          "type": "address"
        },
        {
          "indexed": true,
          "internalType": "uint256",
          "name": "tokenId",
          "type": "uint256"
        }
      ],
      "name": "Transfer",
      "type": "event"
    },
    {
      "inputs": [
        {
          "internalType": "address",
          "name": "to",
          "type": "address"
        },
        {
          "internalType": "uint256",
          "name": "tokenId",
          "type": "uint256"
        }
      ],
      "name": "approve",
      "outputs": [],
      "stateMutability": "nonpayable",
      "type": "function"
    },
    {
      "inputs": [
        {
          "internalType": "address",
          "name": "owner",
          "type": "address"
        }
      ],
      "name": "balanceOf",
      "outputs": [
        {
          "internalType": "uint256",
          "name": "",
          "type": "uint256"
        }
      ],
      "stateMutability": "view",
      "type": "function",
      "constant": true
    },
    {
      "inputs": [
        {
          "internalType": "uint256",
          "name": "",
          "type": "uint256"
        }
      ],
      "name": "buildings",
      "outputs": [
        {
          "internalType": "string",
          "name": "name",
          "type": "string"
        },
        {
          "internalType": "address",
          "name": "owner",
          "type": "address"
        },
        {
          "internalType": "uint256",
          "name": "width",
          "type": "uint256"
        },
        {
          "internalType": "uint256",
          "name": "height",
          "type": "uint256"
        },
        {
          "internalType": "uint256",
          "name": "depth",
          "type": "uint256"
        },
        {
          "internalType": "int256",
          "name": "posX",
          "type": "int256"
        },
        {
          "internalType": "int256",
          "name": "posY",
          "type": "int256"
        },
        {
          "internalType": "int256",
          "name": "posZ",
          "type": "int256"
        }
      ],
      "stateMutability": "view",
      "type": "function",
      "constant": true
    },
    {
      "inputs": [],
      "name": "cost",
      "outputs": [
        {
          "internalType": "uint256",
          "name": "",
          "type": "uint256"
        }
      ],
      "stateMutability": "view",
      "type": "function",
      "constant": true
    },
    {
      "inputs": [
        {
          "internalType": "uint256",
          "name": "tokenId",
          "type": "uint256"
        }
      ],
      "name": "getApproved",
      "outputs": [
        {
          "internalType": "address",
          "name": "",
          "type": "address"
        }
      ],
      "stateMutability": "view",
      "type": "function",
      "constant": true
    },
    {
      "inputs": [
        {
          "internalType": "address",
          "name": "owner",
          "type": "address"
        },
        {
          "internalType": "address",
          "name": "operator",
          "type": "address"
        }
      ],
      "name": "isApprovedForAll",
      "outputs": [
        {
          "internalType": "bool",
          "name": "",
          "type": "bool"
        }
      ],
      "stateMutability": "view",
      "type": "function",
      "constant": true
    },
    {
      "inputs": [],
      "name": "maxSupply",
      "outputs": [
        {
          "internalType": "uint256",
          "name": "",
          "type": "uint256"
        }
      ],
      "stateMutability": "view",
      "type": "function",
      "constant": true
    },
    {
      "inputs": [],
      "name": "name",
      "outputs": [
        {
          "internalType": "string",
          "name": "",
          "type": "string"
        }
      ],
      "stateMutability": "view",
      "type": "function",
      "constant": true
    },
    {
      "inputs": [
        {
          "internalType": "uint256",
          "name": "tokenId",
          "type": "uint256"
        }
      ],
      "name": "ownerOf",
      "outputs": [
        {
          "internalType": "address",
          "name": "",
          "type": "address"
        }
      ],
      "stateMutability": "view",
      "type": "function",
      "constant": true
    },
    {
      "inputs": [
        {
          "internalType": "address",
          "name": "operator",
          "type": "address"
        },
        {
          "internalType": "bool",
          "name": "approved",
          "type": "bool"
        }
      ],
      "name": "setApprovalForAll",
      "outputs": [],
      "stateMutability": "nonpayable",
      "type": "function"
    },
    {
      "inputs": [
        {
          "internalType": "bytes4",
          "name": "interfaceId",
          "type": "bytes4"
        }
      ],
      "name": "supportsInterface",
      "outputs": [
        {
          "internalType": "bool",
          "name": "",
          "type": "bool"
        }
      ],
      "stateMutability": "view",
      "type": "function",
      "constant": true
    },
    {
      "inputs": [],
      "name": "symbol",
      "outputs": [
        {
          "internalType": "string",
          "name": "",
          "type": "string"
        }
      ],
      "stateMutability": "view",
      "type": "function",
      "constant": true
    },
    {
      "inputs": [
        {
          "internalType": "uint256",
          "name": "tokenId",
          "type": "uint256"
        }
      ],
      "name": "tokenURI",
      "outputs": [
        {
          "internalType": "string",
          "name": "",
          "type": "string"
        }
      ],
      "stateMutability": "view",
      "type": "function",
      "constant": true
    },
    {
      "inputs": [],
      "name": "totalSupply",
      "outputs": [
        {
          "internalType": "uint256",
          "name": "",
          "type": "uint256"
        }
      ],
      "stateMutability": "view",
      "type": "function",
      "constant": true
    },
    {
      "inputs": [
        {
          "internalType": "uint256",
          "name": "_id",
          "type": "uint256"
        }
      ],
      "name": "mint",
      "outputs": [],
      "stateMutability": "payable",
      "type": "function",
      "payable": true
    },
    {
      "inputs": [
        {
          "internalType": "address",
          "name": "from",
          "type": "address"
        },
        {
          "internalType": "address",
          "name": "to",
          "type": "address"
        },
        {
          "internalType": "uint256",
          "name": "tokenId",
          "type": "uint256"
        }
      ],
      "name": "transferFrom",
      "outputs": [],
      "stateMutability": "nonpayable",
      "type": "function"
    },
    {
      "inputs": [
        {
          "internalType": "address",
          "name": "from",
          "type": "address"
        },
        {
          "internalType": "address",
          "name": "to",
          "type": "address"
        },
        {
          "internalType": "uint256",
          "name": "tokenId",
          "type": "uint256"
        }
      ],
      "name": "safeTransferFrom",
      "outputs": [],
      "stateMutability": "nonpayable",
      "type": "function"
    },
    {
      "inputs": [
        {
          "internalType": "address",
          "name": "from",
          "type": "address"
        },
        {
          "internalType": "address",
          "name": "to",
          "type": "address"
        },
        {
          "internalType": "uint256",
          "name": "tokenId",
          "type": "uint256"
        },
        {
          "internalType": "bytes",
          "name": "_data",
          "type": "bytes"
        }
      ],
      "name": "safeTransferFrom",
      "outputs": [],
      "stateMutability": "nonpayable",
      "type": "function"
    },
    {
      "inputs": [],
      "name": "getBuildings",
      "outputs": [
        {
          "components": [
            {
              "internalType": "string",
              "name": "name",
              "type": "string"
            },
            {
              "internalType": "address",
              "name": "owner",
              "type": "address"
            },
            {
              "internalType": "uint256",
              "name": "width",
              "type": "uint256"
            },
            {
              "internalType": "uint256",
              "name": "height",
              "type": "uint256"
            },
            {
              "internalType": "uint256",
              "name": "depth",
              "type": "uint256"
            },
            {
              "internalType": "int256",
              "name": "posX",
              "type": "int256"
            },
            {
              "internalType": "int256",
              "name": "posY",
              "type": "int256"
            },
            {
              "internalType": "int256",
              "name": "posZ",
              "type": "int256"
            }
          ],
          "internalType": "struct Land.Building[]",
          "name": "",
          "type": "tuple[]"
        }
      ],
      "stateMutability": "view",
      "type": "function",
      "constant": true
    },
    {
      "inputs": [
        {
          "internalType": "uint256",
          "name": "_id",
          "type": "uint256"
        }
      ],
      "name": "getBuilding",
      "outputs": [
        {
          "components": [
            {
              "internalType": "string",
              "name": "name",
              "type": "string"
            },
            {
              "internalType": "address",
              "name": "owner",
              "type": "address"
            },
            {
              "internalType": "uint256",
              "name": "width",
              "type": "uint256"
            },
            {
              "internalType": "uint256",
              "name": "height",
              "type": "uint256"
            },
            {
              "internalType": "uint256",
              "name": "depth",
              "type": "uint256"
            },
            {
              "internalType": "int256",
              "name": "posX",
              "type": "int256"
            },
            {
              "internalType": "int256",
              "name": "posY",
              "type": "int256"
            },
            {
              "internalType": "int256",
              "name": "posZ",
              "type": "int256"
            }
          ],
          "internalType": "struct Land.Building",
          "name": "",
          "type": "tuple"
        }
      ],
      "stateMutability": "view",
      "type": "function",
      "constant": true
    }
  ],
  "bytecode": "0x6080604052670de0b6b3a7640000600655600a60075560006008553480156200002757600080fd5b50604051620046703803806200467083398181016040528101906200004d919062001052565b828281600090805190602001906200006792919062000f19565b5080600190805190602001906200008092919062000f19565b5050508060068190555060096040518061010001604052806040518060400160405280600481526020017f42616e6b000000000000000000000000000000000000000000000000000000008152508152602001600073ffffffffffffffffffffffffffffffffffffffff16815260200160028152602001600681526020016004815260200160008152602001600081526020016000815250908060018154018082558091505060019003906000526020600020906008020160009091909190915060008201518160000190805190602001906200015f92919062000f19565b5060208201518160010160006101000a81548173ffffffffffffffffffffffffffffffffffffffff021916908373ffffffffffffffffffffffffffffffffffffffff16021790555060408201518160020155606082015181600301556080820151816004015560a0820151816005015560c0820151816006015560e08201518160070155505060096040518061010001604052806040518060400160405280600a81526020017f556e6976657273697479000000000000000000000000000000000000000000008152508152602001600073ffffffffffffffffffffffffffffffffffffffff16815260200160048152602001600a815260200160088152602001600a81526020017fffffffffffffffffffffffffffffffffffffffffffffffffffffffffffffffee8152602001600081525090806001815401808255809150506001900390600052602060002090600802016000909190919091506000820151816000019080519060200190620002d992919062000f19565b5060208201518160010160006101000a81548173ffffffffffffffffffffffffffffffffffffffff021916908373ffffffffffffffffffffffffffffffffffffffff16021790555060408201518160020155606082015181600301556080820151816004015560a0820151816005015560c0820151816006015560e08201518160070155505060096040518061010001604052806040518060400160405280601081526020017f43656e7472616c20486f73706974616c000000000000000000000000000000008152508152602001600073ffffffffffffffffffffffffffffffffffffffff16815260200160028152602001600c815260200160048152602001600a8152602001601081526020016000815250908060018154018082558091505060019003906000526020600020906008020160009091909190915060008201518160000190805190602001906200043492919062000f19565b5060208201518160010160006101000a81548173ffffffffffffffffffffffffffffffffffffffff021916908373ffffffffffffffffffffffffffffffffffffffff16021790555060408201518160020155606082015181600301556080820151816004015560a0820151816005015560c0820151816006015560e08201518160070155505060096040518061010001604052806040518060400160405280600881526020017f66756e207061726b0000000000000000000000000000000000000000000000008152508152602001600073ffffffffffffffffffffffffffffffffffffffff16815260200160068152602001600481526020016004815260200160148152602001600281526020016000815250908060018154018082558091505060019003906000526020600020906008020160009091909190915060008201518160000190805190602001906200058f92919062000f19565b5060208201518160010160006101000a81548173ffffffffffffffffffffffffffffffffffffffff021916908373ffffffffffffffffffffffffffffffffffffffff16021790555060408201518160020155606082015181600301556080820151816004015560a0820151816005015560c0820151816006015560e08201518160070155505060096040518061010001604052806040518060400160405280600b81526020017f4172742047616c6c6572790000000000000000000000000000000000000000008152508152602001600073ffffffffffffffffffffffffffffffffffffffff1681526020016004815260200160068152602001600281526020017fffffffffffffffffffffffffffffffffffffffffffffffffffffffffffffffee81526020017ffffffffffffffffffffffffffffffffffffffffffffffffffffffffffffffff481526020016000815250908060018154018082558091505060019003906000526020600020906008020160009091909190915060008201518160000190805190602001906200072892919062000f19565b5060208201518160010160006101000a81548173ffffffffffffffffffffffffffffffffffffffff021916908373ffffffffffffffffffffffffffffffffffffffff16021790555060408201518160020155606082015181600301556080820151816004015560a0820151816005015560c0820151816006015560e08201518160070155505060096040518061010001604052806040518060400160405280600a81526020017f42656163682043697479000000000000000000000000000000000000000000008152508152602001600073ffffffffffffffffffffffffffffffffffffffff168152602001600a815260200160068152602001600681526020017ffffffffffffffffffffffffffffffffffffffffffffffffffffffffffffffffc81526020017ffffffffffffffffffffffffffffffffffffffffffffffffffffffffffffffff78152602001600081525090806001815401808255809150506001900390600052602060002090600802016000909190919091506000820151816000019080519060200190620008c192919062000f19565b5060208201518160010160006101000a81548173ffffffffffffffffffffffffffffffffffffffff021916908373ffffffffffffffffffffffffffffffffffffffff16021790555060408201518160020155606082015181600301556080820151816004015560a0820151816005015560c0820151816006015560e08201518160070155505060096040518061010001604052806040518060400160405280600b81526020017f466f6f642048656176656e0000000000000000000000000000000000000000008152508152602001600073ffffffffffffffffffffffffffffffffffffffff16815260200160048152602001600a8152602001600481526020017fffffffffffffffffffffffffffffffffffffffffffffffffffffffffffffffec8152602001600f815260200160008152509080600181540180825580915050600190039060005260206000209060080201600090919091909150600082015181600001908051906020019062000a3b92919062000f19565b5060208201518160010160006101000a81548173ffffffffffffffffffffffffffffffffffffffff021916908373ffffffffffffffffffffffffffffffffffffffff16021790555060408201518160020155606082015181600301556080820151816004015560a0820151816005015560c0820151816006015560e08201518160070155505060096040518061010001604052806040518060400160405280601381526020017f496e647573747269616c20526566696e617279000000000000000000000000008152508152602001600073ffffffffffffffffffffffffffffffffffffffff16815260200160048152602001600c8152602001600281526020017fffffffffffffffffffffffffffffffffffffffffffffffffffffffffffffffed81526020016000815260200160008152509080600181540180825580915050600190039060005260206000209060080201600090919091909150600082015181600001908051906020019062000bb592919062000f19565b5060208201518160010160006101000a81548173ffffffffffffffffffffffffffffffffffffffff021916908373ffffffffffffffffffffffffffffffffffffffff16021790555060408201518160020155606082015181600301556080820151816004015560a0820151816005015560c0820151816006015560e08201518160070155505060096040518061010001604052806040518060400160405280600c81526020017f5374617465204d757375656d00000000000000000000000000000000000000008152508152602001600073ffffffffffffffffffffffffffffffffffffffff168152602001600881526020016004815260200160088152602001600981526020016003815260200160008152509080600181540180825580915050600190039060005260206000209060080201600090919091909150600082015181600001908051906020019062000d1092919062000f19565b5060208201518160010160006101000a81548173ffffffffffffffffffffffffffffffffffffffff021916908373ffffffffffffffffffffffffffffffffffffffff16021790555060408201518160020155606082015181600301556080820151816004015560a0820151816005015560c0820151816006015560e08201518160070155505060096040518061010001604052806040518060400160405280600b81526020017f43656e746572204d616c6c0000000000000000000000000000000000000000008152508152602001600073ffffffffffffffffffffffffffffffffffffffff1681526020016006815260200160068152602001600681526020017ffffffffffffffffffffffffffffffffffffffffffffffffffffffffffffffffc8152602001600b815260200160008152509080600181540180825580915050600190039060005260206000209060080201600090919091909150600082015181600001908051906020019062000e8a92919062000f19565b5060208201518160010160006101000a81548173ffffffffffffffffffffffffffffffffffffffff021916908373ffffffffffffffffffffffffffffffffffffffff16021790555060408201518160020155606082015181600301556080820151816004015560a0820151816005015560c0820151816006015560e0820151816007015550505050506200126e565b82805462000f279062001179565b90600052602060002090601f01602090048101928262000f4b576000855562000f97565b82601f1062000f6657805160ff191683800117855562000f97565b8280016001018555821562000f97579182015b8281111562000f9657825182559160200191906001019062000f79565b5b50905062000fa6919062000faa565b5090565b5b8082111562000fc557600081600090555060010162000fab565b5090565b600062000fe062000fda8462001103565b620010da565b90508281526020810184848401111562000ff957600080fd5b6200100684828562001143565b509392505050565b600082601f8301126200102057600080fd5b81516200103284826020860162000fc9565b91505092915050565b6000815190506200104c8162001254565b92915050565b6000806000606084860312156200106857600080fd5b600084015167ffffffffffffffff8111156200108357600080fd5b62001091868287016200100e565b935050602084015167ffffffffffffffff811115620010af57600080fd5b620010bd868287016200100e565b9250506040620010d0868287016200103b565b9150509250925092565b6000620010e6620010f9565b9050620010f48282620011af565b919050565b6000604051905090565b600067ffffffffffffffff82111562001121576200112062001214565b5b6200112c8262001243565b9050602081019050919050565b6000819050919050565b60005b838110156200116357808201518184015260208101905062001146565b8381111562001173576000848401525b50505050565b600060028204905060018216806200119257607f821691505b60208210811415620011a957620011a8620011e5565b5b50919050565b620011ba8262001243565b810181811067ffffffffffffffff82111715620011dc57620011db62001214565b5b80604052505050565b7f4e487b7100000000000000000000000000000000000000000000000000000000600052602260045260246000fd5b7f4e487b7100000000000000000000000000000000000000000000000000000000600052604160045260246000fd5b6000601f19601f8301169050919050565b6200125f8162001139565b81146200126b57600080fd5b50565b6133f2806200127e6000396000f3fe60806040526004361061011f5760003560e01c806370a08231116100a0578063b88d4fde11610064578063b88d4fde14610405578063c87b56dd1461042e578063d5abeb011461046b578063d9cf6a2614610496578063e985e9c5146104c15761011f565b806370a082311461031b57806395d89b41146103585780639dfd8b0214610383578063a0712d68146103c0578063a22cb465146103dc5761011f565b806318160ddd116100e757806318160ddd1461021d57806323b872dd1461024857806342842e0e146102715780634c96a0621461029a5780636352211e146102de5761011f565b806301ffc9a71461012457806306fdde0314610161578063081812fc1461018c578063095ea7b3146101c957806313faede6146101f2575b600080fd5b34801561013057600080fd5b5061014b60048036038101906101469190612279565b6104fe565b60405161015891906128b9565b60405180910390f35b34801561016d57600080fd5b506101766105e0565b60405161018391906128d4565b60405180910390f35b34801561019857600080fd5b506101b360048036038101906101ae91906122cb565b610672565b6040516101c09190612830565b60405180910390f35b3480156101d557600080fd5b506101f060048036038101906101eb919061223d565b6106f7565b005b3480156101fe57600080fd5b5061020761080f565b6040516102149190612b5d565b60405180910390f35b34801561022957600080fd5b50610232610815565b60405161023f9190612b5d565b60405180910390f35b34801561025457600080fd5b5061026f600480360381019061026a9190612137565b61081b565b005b34801561027d57600080fd5b5061029860048036038101906102939190612137565b610911565b005b3480156102a657600080fd5b506102c160048036038101906102bc91906122cb565b610931565b6040516102d59897969594939291906128f6565b60405180910390f35b3480156102ea57600080fd5b50610305600480360381019061030091906122cb565b610a31565b6040516103129190612830565b60405180910390f35b34801561032757600080fd5b50610342600480360381019061033d91906120d2565b610ae3565b60405161034f9190612b5d565b60405180910390f35b34801561036457600080fd5b5061036d610b9b565b60405161037a91906128d4565b60405180910390f35b34801561038f57600080fd5b506103aa60048036038101906103a591906122cb565b610c2d565b6040516103b79190612b3b565b60405180910390f35b6103da60048036038101906103d591906122cb565b610dc0565b005b3480156103e857600080fd5b5061040360048036038101906103fe9190612201565b610f53565b005b34801561041157600080fd5b5061042c60048036038101906104279190612186565b610f69565b005b34801561043a57600080fd5b50610455600480360381019061045091906122cb565b611061565b60405161046291906128d4565b60405180910390f35b34801561047757600080fd5b50610480611108565b60405161048d9190612b5d565b60405180910390f35b3480156104a257600080fd5b506104ab61110e565b6040516104b89190612897565b60405180910390f35b3480156104cd57600080fd5b506104e860048036038101906104e391906120fb565b611292565b6040516104f591906128b9565b60405180910390f35b60007f80ac58cd000000000000000000000000000000000000000000000000000000007bffffffffffffffffffffffffffffffffffffffffffffffffffffffff1916827bffffffffffffffffffffffffffffffffffffffffffffffffffffffff191614806105c957507f5b5e139f000000000000000000000000000000000000000000000000000000007bffffffffffffffffffffffffffffffffffffffffffffffffffffffff1916827bffffffffffffffffffffffffffffffffffffffffffffffffffffffff1916145b806105d957506105d882611326565b5b9050919050565b6060600080546105ef90612dd6565b80601f016020809104026020016040519081016040528092919081815260200182805461061b90612dd6565b80156106685780601f1061063d57610100808354040283529160200191610668565b820191906000526020600020905b81548152906001019060200180831161064b57829003601f168201915b5050505050905090565b600061067d82611390565b6106bc576040517f08c379a00000000000000000000000000000000000000000000000000000000081526004016106b390612adb565b60405180910390fd5b6004600083815260200190815260200160002060009054906101000a900473ffffffffffffffffffffffffffffffffffffffff169050919050565b600061070282610a31565b90508073ffffffffffffffffffffffffffffffffffffffff168373ffffffffffffffffffffffffffffffffffffffff161415610773576040517f08c379a000000000000000000000000000000000000000000000000000000000815260040161076a90612b1b565b60405180910390fd5b8073ffffffffffffffffffffffffffffffffffffffff166107926113fc565b73ffffffffffffffffffffffffffffffffffffffff1614806107c157506107c0816107bb6113fc565b611292565b5b610800576040517f08c379a00000000000000000000000000000000000000000000000000000000081526004016107f790612a5b565b60405180910390fd5b61080a8383611404565b505050565b60065481565b60085481565b61082c6108266113fc565b826114bd565b61086b576040517f08c379a0000000000000000000000000000000000000000000000000000000008152600401610862906129db565b60405180910390fd5b81600960018361087b9190612ce2565b815481106108b2577f4e487b7100000000000000000000000000000000000000000000000000000000600052603260045260246000fd5b906000526020600020906008020160010160006101000a81548173ffffffffffffffffffffffffffffffffffffffff021916908373ffffffffffffffffffffffffffffffffffffffff16021790555061090c83838361159b565b505050565b61092c83838360405180602001604052806000815250610f69565b505050565b6009818154811061094157600080fd5b906000526020600020906008020160009150905080600001805461096490612dd6565b80601f016020809104026020016040519081016040528092919081815260200182805461099090612dd6565b80156109dd5780601f106109b2576101008083540402835291602001916109dd565b820191906000526020600020905b8154815290600101906020018083116109c057829003601f168201915b5050505050908060010160009054906101000a900473ffffffffffffffffffffffffffffffffffffffff16908060020154908060030154908060040154908060050154908060060154908060070154905088565b6000806002600084815260200190815260200160002060009054906101000a900473ffffffffffffffffffffffffffffffffffffffff169050600073ffffffffffffffffffffffffffffffffffffffff168173ffffffffffffffffffffffffffffffffffffffff161415610ada576040517f08c379a0000000000000000000000000000000000000000000000000000000008152600401610ad190612a9b565b60405180910390fd5b80915050919050565b60008073ffffffffffffffffffffffffffffffffffffffff168273ffffffffffffffffffffffffffffffffffffffff161415610b54576040517f08c379a0000000000000000000000000000000000000000000000000000000008152600401610b4b90612a7b565b60405180910390fd5b600360008373ffffffffffffffffffffffffffffffffffffffff1673ffffffffffffffffffffffffffffffffffffffff168152602001908152602001600020549050919050565b606060018054610baa90612dd6565b80601f0160208091040260200160405190810160405280929190818152602001828054610bd690612dd6565b8015610c235780601f10610bf857610100808354040283529160200191610c23565b820191906000526020600020905b815481529060010190602001808311610c0657829003601f168201915b5050505050905090565b610c35611fa6565b6009600183610c449190612ce2565b81548110610c7b577f4e487b7100000000000000000000000000000000000000000000000000000000600052603260045260246000fd5b906000526020600020906008020160405180610100016040529081600082018054610ca590612dd6565b80601f0160208091040260200160405190810160405280929190818152602001828054610cd190612dd6565b8015610d1e5780601f10610cf357610100808354040283529160200191610d1e565b820191906000526020600020905b815481529060010190602001808311610d0157829003601f168201915b505050505081526020016001820160009054906101000a900473ffffffffffffffffffffffffffffffffffffffff1673ffffffffffffffffffffffffffffffffffffffff1673ffffffffffffffffffffffffffffffffffffffff16815260200160028201548152602001600382015481526020016004820154815260200160058201548152602001600682015481526020016007820154815250509050919050565b60006008549050600754811115610dd657600080fd5b600073ffffffffffffffffffffffffffffffffffffffff166009600184610dfd9190612ce2565b81548110610e34577f4e487b7100000000000000000000000000000000000000000000000000000000600052603260045260246000fd5b906000526020600020906008020160010160009054906101000a900473ffffffffffffffffffffffffffffffffffffffff1673ffffffffffffffffffffffffffffffffffffffff1614610e8657600080fd5b600654341015610e9557600080fd5b336009600184610ea59190612ce2565b81548110610edc577f4e487b7100000000000000000000000000000000000000000000000000000000600052603260045260246000fd5b906000526020600020906008020160010160006101000a81548173ffffffffffffffffffffffffffffffffffffffff021916908373ffffffffffffffffffffffffffffffffffffffff160217905550600160086000828254610f3e9190612c5b565b92505081905550610f4f3383611802565b5050565b610f65610f5e6113fc565b8383611820565b5050565b610f7a610f746113fc565b836114bd565b610fb9576040517f08c379a0000000000000000000000000000000000000000000000000000000008152600401610fb0906129db565b60405180910390fd5b826009600184610fc99190612ce2565b81548110611000577f4e487b7100000000000000000000000000000000000000000000000000000000600052603260045260246000fd5b906000526020600020906008020160010160006101000a81548173ffffffffffffffffffffffffffffffffffffffff021916908373ffffffffffffffffffffffffffffffffffffffff16021790555061105b8484848461198d565b50505050565b606061106c82611390565b6110ab576040517f08c379a00000000000000000000000000000000000000000000000000000000081526004016110a290612afb565b60405180910390fd5b60006110b56119e9565b905060008151116110d55760405180602001604052806000815250611100565b806110df84611a00565b6040516020016110f092919061280c565b6040516020818303038152906040525b915050919050565b60075481565b60606009805480602002602001604051908101604052809291908181526020016000905b8282101561128957838290600052602060002090600802016040518061010001604052908160008201805461116690612dd6565b80601f016020809104026020016040519081016040528092919081815260200182805461119290612dd6565b80156111df5780601f106111b4576101008083540402835291602001916111df565b820191906000526020600020905b8154815290600101906020018083116111c257829003601f168201915b505050505081526020016001820160009054906101000a900473ffffffffffffffffffffffffffffffffffffffff1673ffffffffffffffffffffffffffffffffffffffff1673ffffffffffffffffffffffffffffffffffffffff168152602001600282015481526020016003820154815260200160048201548152602001600582015481526020016006820154815260200160078201548152505081526020019060010190611132565b50505050905090565b6000600560008473ffffffffffffffffffffffffffffffffffffffff1673ffffffffffffffffffffffffffffffffffffffff16815260200190815260200160002060008373ffffffffffffffffffffffffffffffffffffffff1673ffffffffffffffffffffffffffffffffffffffff16815260200190815260200160002060009054906101000a900460ff16905092915050565b60007f01ffc9a7000000000000000000000000000000000000000000000000000000007bffffffffffffffffffffffffffffffffffffffffffffffffffffffff1916827bffffffffffffffffffffffffffffffffffffffffffffffffffffffff1916149050919050565b60008073ffffffffffffffffffffffffffffffffffffffff166002600084815260200190815260200160002060009054906101000a900473ffffffffffffffffffffffffffffffffffffffff1673ffffffffffffffffffffffffffffffffffffffff1614159050919050565b600033905090565b816004600083815260200190815260200160002060006101000a81548173ffffffffffffffffffffffffffffffffffffffff021916908373ffffffffffffffffffffffffffffffffffffffff160217905550808273ffffffffffffffffffffffffffffffffffffffff1661147783610a31565b73ffffffffffffffffffffffffffffffffffffffff167f8c5be1e5ebec7d5bd14f71427d1e84f3dd0314c0f7b2291e5b200ac8c7c3b92560405160405180910390a45050565b60006114c882611390565b611507576040517f08c379a00000000000000000000000000000000000000000000000000000000081526004016114fe90612a3b565b60405180910390fd5b600061151283610a31565b90508073ffffffffffffffffffffffffffffffffffffffff168473ffffffffffffffffffffffffffffffffffffffff16148061158157508373ffffffffffffffffffffffffffffffffffffffff1661156984610672565b73ffffffffffffffffffffffffffffffffffffffff16145b8061159257506115918185611292565b5b91505092915050565b8273ffffffffffffffffffffffffffffffffffffffff166115bb82610a31565b73ffffffffffffffffffffffffffffffffffffffff1614611611576040517f08c379a00000000000000000000000000000000000000000000000000000000081526004016116089061299b565b60405180910390fd5b600073ffffffffffffffffffffffffffffffffffffffff168273ffffffffffffffffffffffffffffffffffffffff161415611681576040517f08c379a0000000000000000000000000000000000000000000000000000000008152600401611678906129fb565b60405180910390fd5b61168c838383611bad565b611697600082611404565b6001600360008573ffffffffffffffffffffffffffffffffffffffff1673ffffffffffffffffffffffffffffffffffffffff16815260200190815260200160002060008282546116e79190612ce2565b925050819055506001600360008473ffffffffffffffffffffffffffffffffffffffff1673ffffffffffffffffffffffffffffffffffffffff168152602001908152602001600020600082825461173e9190612c5b565b92505081905550816002600083815260200190815260200160002060006101000a81548173ffffffffffffffffffffffffffffffffffffffff021916908373ffffffffffffffffffffffffffffffffffffffff160217905550808273ffffffffffffffffffffffffffffffffffffffff168473ffffffffffffffffffffffffffffffffffffffff167fddf252ad1be2c89b69c2b068fc378daa952ba7f163c4a11628f55a4df523b3ef60405160405180910390a46117fd838383611bb2565b505050565b61181c828260405180602001604052806000815250611bb7565b5050565b8173ffffffffffffffffffffffffffffffffffffffff168373ffffffffffffffffffffffffffffffffffffffff16141561188f576040517f08c379a000000000000000000000000000000000000000000000000000000000815260040161188690612a1b565b60405180910390fd5b80600560008573ffffffffffffffffffffffffffffffffffffffff1673ffffffffffffffffffffffffffffffffffffffff16815260200190815260200160002060008473ffffffffffffffffffffffffffffffffffffffff1673ffffffffffffffffffffffffffffffffffffffff16815260200190815260200160002060006101000a81548160ff0219169083151502179055508173ffffffffffffffffffffffffffffffffffffffff168373ffffffffffffffffffffffffffffffffffffffff167f17307eab39ab6107e8899845ad3d59bd9653f200f220920489ca2b5937696c318360405161198091906128b9565b60405180910390a3505050565b61199884848461159b565b6119a484848484611c12565b6119e3576040517f08c379a00000000000000000000000000000000000000000000000000000000081526004016119da9061297b565b60405180910390fd5b50505050565b606060405180602001604052806000815250905090565b60606000821415611a48576040518060400160405280600181526020017f30000000000000000000000000000000000000000000000000000000000000008152509050611ba8565b600082905060005b60008214611a7a578080611a6390612e39565b915050600a82611a739190612cb1565b9150611a50565b60008167ffffffffffffffff811115611abc577f4e487b7100000000000000000000000000000000000000000000000000000000600052604160045260246000fd5b6040519080825280601f01601f191660200182016040528015611aee5781602001600182028036833780820191505090505b5090505b60008514611ba157600182611b079190612ce2565b9150600a85611b169190612e82565b6030611b229190612c5b565b60f81b818381518110611b5e577f4e487b7100000000000000000000000000000000000000000000000000000000600052603260045260246000fd5b60200101907effffffffffffffffffffffffffffffffffffffffffffffffffffffffffffff1916908160001a905350600a85611b9a9190612cb1565b9450611af2565b8093505050505b919050565b505050565b505050565b611bc18383611da9565b611bce6000848484611c12565b611c0d576040517f08c379a0000000000000000000000000000000000000000000000000000000008152600401611c049061297b565b60405180910390fd5b505050565b6000611c338473ffffffffffffffffffffffffffffffffffffffff16611f83565b15611d9c578373ffffffffffffffffffffffffffffffffffffffff1663150b7a02611c5c6113fc565b8786866040518563ffffffff1660e01b8152600401611c7e949392919061284b565b602060405180830381600087803b158015611c9857600080fd5b505af1925050508015611cc957506040513d601f19601f82011682018060405250810190611cc691906122a2565b60015b611d4c573d8060008114611cf9576040519150601f19603f3d011682016040523d82523d6000602084013e611cfe565b606091505b50600081511415611d44576040517f08c379a0000000000000000000000000000000000000000000000000000000008152600401611d3b9061297b565b60405180910390fd5b805181602001fd5b63150b7a0260e01b7bffffffffffffffffffffffffffffffffffffffffffffffffffffffff1916817bffffffffffffffffffffffffffffffffffffffffffffffffffffffff191614915050611da1565b600190505b949350505050565b600073ffffffffffffffffffffffffffffffffffffffff168273ffffffffffffffffffffffffffffffffffffffff161415611e19576040517f08c379a0000000000000000000000000000000000000000000000000000000008152600401611e1090612abb565b60405180910390fd5b611e2281611390565b15611e62576040517f08c379a0000000000000000000000000000000000000000000000000000000008152600401611e59906129bb565b60405180910390fd5b611e6e60008383611bad565b6001600360008473ffffffffffffffffffffffffffffffffffffffff1673ffffffffffffffffffffffffffffffffffffffff1681526020019081526020016000206000828254611ebe9190612c5b565b92505081905550816002600083815260200190815260200160002060006101000a81548173ffffffffffffffffffffffffffffffffffffffff021916908373ffffffffffffffffffffffffffffffffffffffff160217905550808273ffffffffffffffffffffffffffffffffffffffff16600073ffffffffffffffffffffffffffffffffffffffff167fddf252ad1be2c89b69c2b068fc378daa952ba7f163c4a11628f55a4df523b3ef60405160405180910390a4611f7f60008383611bb2565b5050565b6000808273ffffffffffffffffffffffffffffffffffffffff163b119050919050565b60405180610100016040528060608152602001600073ffffffffffffffffffffffffffffffffffffffff1681526020016000815260200160008152602001600081526020016000815260200160008152602001600081525090565b600061201461200f84612b9d565b612b78565b90508281526020810184848401111561202c57600080fd5b612037848285612d94565b509392505050565b60008135905061204e81613360565b92915050565b60008135905061206381613377565b92915050565b6000813590506120788161338e565b92915050565b60008151905061208d8161338e565b92915050565b600082601f8301126120a457600080fd5b81356120b4848260208601612001565b91505092915050565b6000813590506120cc816133a5565b92915050565b6000602082840312156120e457600080fd5b60006120f28482850161203f565b91505092915050565b6000806040838503121561210e57600080fd5b600061211c8582860161203f565b925050602061212d8582860161203f565b9150509250929050565b60008060006060848603121561214c57600080fd5b600061215a8682870161203f565b935050602061216b8682870161203f565b925050604061217c868287016120bd565b9150509250925092565b6000806000806080858703121561219c57600080fd5b60006121aa8782880161203f565b94505060206121bb8782880161203f565b93505060406121cc878288016120bd565b925050606085013567ffffffffffffffff8111156121e957600080fd5b6121f587828801612093565b91505092959194509250565b6000806040838503121561221457600080fd5b60006122228582860161203f565b925050602061223385828601612054565b9150509250929050565b6000806040838503121561225057600080fd5b600061225e8582860161203f565b925050602061226f858286016120bd565b9150509250929050565b60006020828403121561228b57600080fd5b600061229984828501612069565b91505092915050565b6000602082840312156122b457600080fd5b60006122c28482850161207e565b91505092915050565b6000602082840312156122dd57600080fd5b60006122eb848285016120bd565b91505092915050565b6000612300838361268e565b905092915050565b61231181612d16565b82525050565b61232081612d16565b82525050565b600061233182612bde565b61233b8185612c0c565b93508360208202850161234d85612bce565b8060005b85811015612389578484038952815161236a85826122f4565b945061237583612bff565b925060208a01995050600181019050612351565b50829750879550505050505092915050565b6123a481612d28565b82525050565b60006123b582612be9565b6123bf8185612c1d565b93506123cf818560208601612da3565b6123d881612f6f565b840191505092915050565b6123ec81612d60565b82525050565b6123fb81612d60565b82525050565b600061240c82612bf4565b6124168185612c2e565b9350612426818560208601612da3565b61242f81612f6f565b840191505092915050565b600061244582612bf4565b61244f8185612c3f565b935061245f818560208601612da3565b61246881612f6f565b840191505092915050565b600061247e82612bf4565b6124888185612c50565b9350612498818560208601612da3565b80840191505092915050565b60006124b1603283612c3f565b91506124bc82612f80565b604082019050919050565b60006124d4602583612c3f565b91506124df82612fcf565b604082019050919050565b60006124f7601c83612c3f565b91506125028261301e565b602082019050919050565b600061251a603383612c3f565b915061252582613047565b604082019050919050565b600061253d602483612c3f565b915061254882613096565b604082019050919050565b6000612560601983612c3f565b915061256b826130e5565b602082019050919050565b6000612583602c83612c3f565b915061258e8261310e565b604082019050919050565b60006125a6603883612c3f565b91506125b18261315d565b604082019050919050565b60006125c9602a83612c3f565b91506125d4826131ac565b604082019050919050565b60006125ec602983612c3f565b91506125f7826131fb565b604082019050919050565b600061260f602083612c3f565b915061261a8261324a565b602082019050919050565b6000612632602c83612c3f565b915061263d82613273565b604082019050919050565b6000612655602f83612c3f565b9150612660826132c2565b604082019050919050565b6000612678602183612c3f565b915061268382613311565b604082019050919050565b60006101008301600083015184820360008601526126ac8282612401565b91505060208301516126c16020860182612308565b5060408301516126d460408601826127ee565b5060608301516126e760608601826127ee565b5060808301516126fa60808601826127ee565b5060a083015161270d60a08601826123e3565b5060c083015161272060c08601826123e3565b5060e083015161273360e08601826123e3565b508091505092915050565b600061010083016000830151848203600086015261275c8282612401565b91505060208301516127716020860182612308565b50604083015161278460408601826127ee565b50606083015161279760608601826127ee565b5060808301516127aa60808601826127ee565b5060a08301516127bd60a08601826123e3565b5060c08301516127d060c08601826123e3565b5060e08301516127e360e08601826123e3565b508091505092915050565b6127f781612d8a565b82525050565b61280681612d8a565b82525050565b60006128188285612473565b91506128248284612473565b91508190509392505050565b60006020820190506128456000830184612317565b92915050565b60006080820190506128606000830187612317565b61286d6020830186612317565b61287a60408301856127fd565b818103606083015261288c81846123aa565b905095945050505050565b600060208201905081810360008301526128b18184612326565b905092915050565b60006020820190506128ce600083018461239b565b92915050565b600060208201905081810360008301526128ee818461243a565b905092915050565b6000610100820190508181036000830152612911818b61243a565b9050612920602083018a612317565b61292d60408301896127fd565b61293a60608301886127fd565b61294760808301876127fd565b61295460a08301866123f2565b61296160c08301856123f2565b61296e60e08301846123f2565b9998505050505050505050565b60006020820190508181036000830152612994816124a4565b9050919050565b600060208201905081810360008301526129b4816124c7565b9050919050565b600060208201905081810360008301526129d4816124ea565b9050919050565b600060208201905081810360008301526129f48161250d565b9050919050565b60006020820190508181036000830152612a1481612530565b9050919050565b60006020820190508181036000830152612a3481612553565b9050919050565b60006020820190508181036000830152612a5481612576565b9050919050565b60006020820190508181036000830152612a7481612599565b9050919050565b60006020820190508181036000830152612a94816125bc565b9050919050565b60006020820190508181036000830152612ab4816125df565b9050919050565b60006020820190508181036000830152612ad481612602565b9050919050565b60006020820190508181036000830152612af481612625565b9050919050565b60006020820190508181036000830152612b1481612648565b9050919050565b60006020820190508181036000830152612b348161266b565b9050919050565b60006020820190508181036000830152612b55818461273e565b905092915050565b6000602082019050612b7260008301846127fd565b92915050565b6000612b82612b93565b9050612b8e8282612e08565b919050565b6000604051905090565b600067ffffffffffffffff821115612bb857612bb7612f40565b5b612bc182612f6f565b9050602081019050919050565b6000819050602082019050919050565b600081519050919050565b600081519050919050565b600081519050919050565b6000602082019050919050565b600082825260208201905092915050565b600082825260208201905092915050565b600082825260208201905092915050565b600082825260208201905092915050565b600081905092915050565b6000612c6682612d8a565b9150612c7183612d8a565b9250827fffffffffffffffffffffffffffffffffffffffffffffffffffffffffffffffff03821115612ca657612ca5612eb3565b5b828201905092915050565b6000612cbc82612d8a565b9150612cc783612d8a565b925082612cd757612cd6612ee2565b5b828204905092915050565b6000612ced82612d8a565b9150612cf883612d8a565b925082821015612d0b57612d0a612eb3565b5b828203905092915050565b6000612d2182612d6a565b9050919050565b60008115159050919050565b60007fffffffff0000000000000000000000000000000000000000000000000000000082169050919050565b6000819050919050565b600073ffffffffffffffffffffffffffffffffffffffff82169050919050565b6000819050919050565b82818337600083830152505050565b60005b83811015612dc1578082015181840152602081019050612da6565b83811115612dd0576000848401525b50505050565b60006002820490506001821680612dee57607f821691505b60208210811415612e0257612e01612f11565b5b50919050565b612e1182612f6f565b810181811067ffffffffffffffff82111715612e3057612e2f612f40565b5b80604052505050565b6000612e4482612d8a565b91507fffffffffffffffffffffffffffffffffffffffffffffffffffffffffffffffff821415612e7757612e76612eb3565b5b600182019050919050565b6000612e8d82612d8a565b9150612e9883612d8a565b925082612ea857612ea7612ee2565b5b828206905092915050565b7f4e487b7100000000000000000000000000000000000000000000000000000000600052601160045260246000fd5b7f4e487b7100000000000000000000000000000000000000000000000000000000600052601260045260246000fd5b7f4e487b7100000000000000000000000000000000000000000000000000000000600052602260045260246000fd5b7f4e487b7100000000000000000000000000000000000000000000000000000000600052604160045260246000fd5b6000601f19601f8301169050919050565b7f4552433732313a207472616e7366657220746f206e6f6e20455243373231526560008201527f63656976657220696d706c656d656e7465720000000000000000000000000000602082015250565b7f4552433732313a207472616e736665722066726f6d20696e636f72726563742060008201527f6f776e6572000000000000000000000000000000000000000000000000000000602082015250565b7f4552433732313a20746f6b656e20616c7265616479206d696e74656400000000600082015250565b7f204552433732313a207472616e736665722063616c6c6572206973206e6f742060008201527f6f776e6572206e6f7220617070726f7665642000000000000000000000000000602082015250565b7f4552433732313a207472616e7366657220746f20746865207a65726f2061646460008201527f7265737300000000000000000000000000000000000000000000000000000000602082015250565b7f4552433732313a20617070726f766520746f2063616c6c657200000000000000600082015250565b7f4552433732313a206f70657261746f7220717565727920666f72206e6f6e657860008201527f697374656e7420746f6b656e0000000000000000000000000000000000000000602082015250565b7f4552433732313a20617070726f76652063616c6c6572206973206e6f74206f7760008201527f6e6572206e6f7220617070726f76656420666f7220616c6c0000000000000000602082015250565b7f4552433732313a2062616c616e636520717565727920666f7220746865207a6560008201527f726f206164647265737300000000000000000000000000000000000000000000602082015250565b7f4552433732313a206f776e657220717565727920666f72206e6f6e657869737460008201527f656e7420746f6b656e0000000000000000000000000000000000000000000000602082015250565b7f4552433732313a206d696e7420746f20746865207a65726f2061646472657373600082015250565b7f4552433732313a20617070726f76656420717565727920666f72206e6f6e657860008201527f697374656e7420746f6b656e0000000000000000000000000000000000000000602082015250565b7f4552433732314d657461646174613a2055524920717565727920666f72206e6f60008201527f6e6578697374656e7420746f6b656e0000000000000000000000000000000000602082015250565b7f4552433732313a20617070726f76616c20746f2063757272656e74206f776e6560008201527f7200000000000000000000000000000000000000000000000000000000000000602082015250565b61336981612d16565b811461337457600080fd5b50565b61338081612d28565b811461338b57600080fd5b50565b61339781612d34565b81146133a257600080fd5b50565b6133ae81612d8a565b81146133b957600080fd5b5056fea26469706673582212203d558bf5ca40cc8e33db7b3102dfe969485eb0b181da494df55f17054fd0b07d64736f6c63430008020033",
  "immutableReferences": {},
  "source": "// SPDX-License-Identifier: MIT\r\npragma solidity ^0.8.0;\r\n\r\nimport \"@openzeppelin/contracts/token/ERC721/ERC721.sol\";\r\n\r\ncontract Land is ERC721 {\r\n\r\n    uint public cost = 1 ether;\r\n    uint public maxSupply = 10;\r\n    uint public totalSupply = 0;\r\n\r\n    struct Building {\r\n        string name;\r\n        address owner;\r\n        uint256 width;\r\n        uint256 height;\r\n        uint256 depth;\r\n        int256 posX;\r\n        int256 posY;\r\n        int256 posZ;\r\n    }\r\n\r\n    Building[] public buildings;\r\n\r\n    constructor(string memory _name, string memory _symbol, uint256 _cost ) ERC721 (_name, _symbol) {\r\n        cost = _cost;\r\n        buildings.push(\r\n            Building('Bank', address(0x0), 2, 6, 4, 0, 0, 0)\r\n        );\r\n         buildings.push(\r\n            Building('University', address(0x0), 4, 10, 8, 10, -18, 0)\r\n        );\r\n         buildings.push(\r\n            Building('Central Hospital', address(0x0), 2, 12, 4, 10, 16, 0)\r\n        );\r\n         buildings.push(\r\n            Building('fun park', address(0x0), 6, 4, 4, 20, 2, 0)\r\n        );\r\n        buildings.push(\r\n            Building('Art Gallery', address(0x0), 4, 6, 2, -18, -12, 0)\r\n        );\r\n        buildings.push(\r\n            Building('Beach City', address(0x0), 10, 6, 6, -4, -9, 0)\r\n        );\r\n        buildings.push(\r\n            Building('Food Heaven', address(0x0), 4, 10, 4, -20, 15, 0)\r\n        );\r\n        buildings.push(\r\n            Building('Industrial Refinary', address(0x0), 4, 12, 2, -19, 0, 0)\r\n        );\r\n        buildings.push(\r\n            Building('State Musuem', address(0x0), 8, 4, 8, 9, 3, 0)\r\n        );\r\n        buildings.push(\r\n            Building('Center Mall', address(0x0), 6, 6, 6, -4, 11, 0)\r\n        );\r\n    }\r\n\r\n    function mint( uint256 _id) public payable {\r\n        uint256 supply = totalSupply;\r\n        require(supply <= maxSupply);\r\n        require(buildings[_id - 1].owner == address(0x0) );\r\n        require(msg.value >= cost);\r\n\r\n        buildings[_id - 1].owner = msg.sender;\r\n        totalSupply += 1;\r\n        _safeMint(msg.sender, _id);\r\n    }\r\n\r\n    function transferFrom(address from, address to, uint256 tokenId) public override {\r\n        require(_isApprovedOrOwner( _msgSender(), tokenId ) ,\" ERC721: transfer caller is not owner nor approved \");\r\n\r\n        buildings[tokenId - 1].owner = to;\r\n        _transfer(from, to, tokenId);\r\n        \r\n    }\r\n\r\n    function safeTransferFrom(address from, address to, uint256 tokenId, bytes memory _data) public override {\r\n        require(_isApprovedOrOwner( _msgSender(), tokenId ) ,\" ERC721: transfer caller is not owner nor approved \");\r\n\r\n        buildings[tokenId - 1].owner = to;\r\n        _safeTransfer(from, to, tokenId, _data);\r\n        \r\n    }\r\n\r\n    function getBuildings() public view returns(Building[] memory) {\r\n        return buildings;\r\n    }\r\n\r\n    function getBuilding(uint _id) public view returns(Building memory) {\r\n        return buildings[_id - 1];\r\n    }\r\n\r\n}",
  "sourcePath": "C:\\Users\\USER\\Desktop\\blockchain Projects\\earth-2-verse\\src\\contracts\\Land.sol",
  "compiler": {
    "name": "solc",
    "version": "0.8.2+commit.661d1103.Emscripten.clang"
  },
  "schemaVersion": "3.4.4",
  "updatedAt": "2022-04-22T09:01:23.062Z",
  "networkType": "ethereum",
  "devdoc": {
    "kind": "dev",
    "methods": {
      "approve(address,uint256)": {
        "details": "See {IERC721-approve}."
      },
      "balanceOf(address)": {
        "details": "See {IERC721-balanceOf}."
      },
      "getApproved(uint256)": {
        "details": "See {IERC721-getApproved}."
      },
      "isApprovedForAll(address,address)": {
        "details": "See {IERC721-isApprovedForAll}."
      },
      "name()": {
        "details": "See {IERC721Metadata-name}."
      },
      "ownerOf(uint256)": {
        "details": "See {IERC721-ownerOf}."
      },
      "safeTransferFrom(address,address,uint256)": {
        "details": "See {IERC721-safeTransferFrom}."
      },
      "safeTransferFrom(address,address,uint256,bytes)": {
        "details": "See {IERC721-safeTransferFrom}."
      },
      "setApprovalForAll(address,bool)": {
        "details": "See {IERC721-setApprovalForAll}."
      },
      "supportsInterface(bytes4)": {
        "details": "See {IERC165-supportsInterface}."
      },
      "symbol()": {
        "details": "See {IERC721Metadata-symbol}."
      },
      "tokenURI(uint256)": {
        "details": "See {IERC721Metadata-tokenURI}."
      },
      "transferFrom(address,address,uint256)": {
        "details": "See {IERC721-transferFrom}."
      }
    },
    "version": 1
  },
  "userdoc": {
    "kind": "user",
    "methods": {},
    "version": 1
  }
}